:020000040800F2
:100000000040002085410008493D00084D3D0008A2
:10001000513D0008553D0008593D00080000000012
:100020000000000000000000000000006113000854
:100030005D3D000800000000011400086514000880
:10004000CD410008CD410008CD410008CD41000858
:10005000CD410008CD410008CD410008CD41000848
:10006000CD410008CD410008CD410008CD41000838
:10007000CD410008CD410008CD410008CD41000828
:10008000CD410008CD410008CD410008CD41000818
:10009000CD410008CD410008CD410008CD41000808
:1000A000CD410008CD410008CD410008CD410008F8
:1000B000493F0008CD410008CD410008CD4100086E
:1000C000CD410008CD410008CD410008CD410008D8
:1000D000CD410008613D0008613E0008653E000812
:1000E000CD410008CD410008CD410008CD410008B8
:1000F000CD410008CD4100080000000000000000D4
:100100000000000000000000CD410008CD410008C3
:100110000000000000000000CD410008CD410008B3
:10012000CD410008CD410008CD410008CD41000877
:10013000CD410008CD410008CD410008CD41000867
:10014000CD41000800000000000000000000000099
:10015000000000000000000000000000000000009F
:100160000000000000000000CD410008CD41000863
:10017000CD41000800000000CD4100080000000053
:0801800000000000CD41000861
:1001900010B5054C237833B9044B13B10448AFF3C1
:1001A00000800123237010BD8C020020000000009D
:1001B0003C840008084B10B51BB108490848AFF350
:1001C00000800848036803B910BD074B002BFBD023
:1001D000BDE81040184700BF00000000900200205A
:1001E0003C8400088C0200200000000010F8012B65
:1001F00011F8013B012A28BF9A42F7D0D01A704764
:10020000034613F8012B002AFBD1181A0138704756
:1002100001F0FF01102A2BDB10F0070F08D010F8B7
:10022000013B013A8B422DD010F0070F42B3F6D1BB
:10023000F0B441EA012141EA014122F007047FF0D4
:1002400000070023F0E80256083C85EA010586EA2B
:10025000010685FA47F5A3FA87F586FA47F6A5FA67
:1002600087F68EB9EED1F0BC01F0FF0102F0070273
:1002700032B110F8013B013A83EA010313B1F8D11E
:100280000020704701387047002D06BF35460338FF
:10029000073815F0010F07D1013015F4807F02BF38
:1002A000013015F4C03F0130F0BC0138704700BF89
:1002B00081F0004102E000BF83F0004330B54FEA17
:1002C00041044FEA430594EA050F08BF90EA020F84
:1002D0001FBF54EA000C55EA020C7FEA645C7FEA17
:1002E000655C00F0E2804FEA5454D4EB5555B8BF3A
:1002F0006D420CDD2C4480EA020281EA030382EAAB
:10030000000083EA010180EA020281EA0303362D3C
:1003100088BF30BD11F0004F4FEA01314FF4801C0F
:100320004CEA113102D0404261EB410113F0004F21
:100330004FEA03334CEA133302D0524263EB4303D8
:1003400094EA050F00F0A780A4F10104D5F1200E76
:100350000DDB02FA0EFC22FA05F2801841F10001D1
:1003600003FA0EF2801843FA05F359410EE0A5F1A5
:1003700020050EF1200E012A03FA0EFC28BF4CF0D6
:10038000020C43FA05F3C01851EBE37101F000458C
:1003900007D54FF0000EDCF1000C7EEB00006EEB99
:1003A0000101B1F5801F1BD3B1F5001F0CD3490823
:1003B0005FEA30004FEA3C0C04F101044FEA44527A
:1003C00012F5800F80F09A80BCF1004F08BF5FEA01
:1003D000500C50F1000041EB045141EA050130BDE1
:1003E0005FEA4C0C404141EB010111F4801FA4F184
:1003F0000104E9D191F0000F04BF01460020B1FAD9
:1004000081F308BF2033A3F10B03B3F120020CDA10
:100410000C3208DD02F1140CC2F10C0201FA0CF0EE
:1004200021FA02F10CE002F11402D8BFC2F1200C53
:1004300001FA02F120FA0CFCDCBF41EA0C01904009
:10044000E41AA2BF01EB0451294330BD6FEA040452
:100450001F3C1CDA0C340EDC04F11404C4F120023D
:1004600020FA04F001FA02F340EA030021FA04F34F
:1004700045EA030130BDC4F10C04C4F1200220FAA6
:1004800002F001FA04F340EA0300294630BD21FAE4
:1004900004F0294630BD94F0000F83F4801306BFAA
:1004A00081F480110134013D4EE77FEA645C18BF9E
:1004B0007FEA655C29D094EA050F08BF90EA020F35
:1004C00005D054EA000C04BF1946104630BD91EA2D
:1004D000030F1EBF0021002030BD5FEA545C05D130
:1004E0004000494128BF41F0004130BD14F580046F
:1004F0003CBF01F5801130BD01F0004545F0FE41E3
:1005000041F470014FF0000030BD7FEA645C1ABF17
:10051000194610467FEA655C1CBF0B46024650EA4E
:10052000013406BF52EA033591EA030F41F400217A
:1005300030BD00BF90F0000F04BF0021704730B500
:100540004FF4806404F132044FF000054FF00001D5
:1005500050E700BF90F0000F04BF0021704730B596
:100560004FF4806404F1320410F0004548BF40426B
:100570004FF000013EE700BF42004FEAE2014FEAC0
:1005800031014FEA02701FBF12F07F4393F07F4F9B
:1005900081F06051704792F0000F14BF93F07F4FCD
:1005A000704730B54FF4607401F0004521F0004110
:1005B00020E700BF50EA010208BF704730B54FF096
:1005C00000050AE050EA010208BF704730B511F09B
:1005D000004502D5404261EB41014FF4806404F1D3
:1005E00032045FEA915C3FF4DCAE4FF003025FEA55
:1005F000DC0C18BF03325FEADC0C18BF033202EBDD
:10060000DC02C2F1200300FA03FC20FA02F001FA36
:1006100003FE40EA0E0021FA02F11444C1E600BFD5
:1006200070B54FF0FF0C4CF4E06C1CEA11541DBF88
:100630001CEA135594EA0C0F95EA0C0F00F0DEF853
:100640002C4481EA030621EA4C5123EA4C5350EA38
:10065000013518BF52EA033541F4801143F4801389
:1006600038D0A0FB02CE4FF00005E1FB02E506F01A
:100670000042E0FB03E54FF00006E1FB03569CF06F
:10068000000F18BF4EF0010EA4F1FF04B6F5007F75
:1006900064F5407404D25FEA4E0E6D4146EB0606E7
:1006A00042EAC62141EA55514FEAC52040EA5E5070
:1006B0004FEACE2EB4F1FD0C88BFBCF5E06F1ED81A
:1006C000BEF1004F08BF5FEA500E50F1000041EB51
:1006D000045170BD06F0004646EA010140EA0200FE
:1006E00081EA0301B4EB5C04C2BFD4EB0C0541EA20
:1006F000045170BD41F480114FF0000E013C00F335
:10070000AB8014F1360FDEBF002001F0004170BD58
:10071000C4F10004203C35DA0C341BDC04F1140471
:10072000C4F1200500FA05F320FA04F001FA05F2FD
:1007300040EA020001F0004221F0004110EBD370CA
:1007400021FA04F642EB06015EEA430E08BF20EAF6
:10075000D37070BDC4F10C04C4F1200500FA04F399
:1007600020FA05F001FA04F240EA020001F000412B
:1007700010EBD37041F100015EEA430E08BF20EA9E
:10078000D37070BDC4F1200500FA05F24EEA020EE6
:1007900020FA04F301FA05F243EA020321FA04F015
:1007A00001F0004121FA04F220EA020000EBD370CC
:1007B0005EEA430E08BF20EAD37070BD94F0000FCC
:1007C0000FD101F00046400041EB010111F4801F00
:1007D00008BF013CF7D041EA060195F0000F18BFB1
:1007E000704703F00046520043EB030313F4801FED
:1007F00008BF013DF7D043EA0603704794EA0C0FA7
:100800000CEA135518BF95EA0C0F0CD050EA4106BC
:1008100018BF52EA4306D1D181EA030101F0004139
:100820004FF0000070BD50EA410606BF1046194661
:1008300052EA430619D094EA0C0F02D150EA01366D
:1008400013D195EA0C0F05D152EA03361CBF1046AE
:1008500019460AD181EA030101F0004141F0FE414D
:1008600041F470014FF0000070BD41F0FE4141F4D1
:10087000780170BD70B54FF0FF0C4CF4E06C1CEAD1
:1008800011541DBF1CEA135594EA0C0F95EA0C0F86
:1008900000F0A7F8A4EB050481EA030E52EA033541
:1008A0004FEA013100F088804FEA03334FF0805562
:1008B00045EA131343EA12634FEA022245EA11158F
:1008C00045EA10654FEA00260EF000419D4208BF40
:1008D000964244F1FD0404F5407402D25B084FEAED
:1008E0003202B61A65EB03055B084FEA32024FF499
:1008F00080104FF4002CB6EB020E75EB030E22BFF6
:10090000B61A754640EA0C005B084FEA3202B6EBB5
:10091000020E75EB030E22BFB61A754640EA5C0064
:100920005B084FEA3202B6EB020E75EB030E22BFF4
:10093000B61A754640EA9C005B084FEA3202B6EBF5
:10094000020E75EB030E22BFB61A754640EADC00B4
:1009500055EA060E18D04FEA051545EA16754FEA16
:1009600006164FEAC30343EA52734FEAC2025FEA34
:100970001C1CC0D111F4801F0BD141EA00014FF0C3
:1009800000004FF0004CB6E711F4801F04BF014394
:100990000020B4F1FD0C88BFBCF5E06F3FF6AFAEB0
:1009A000B5EB030C04BFB6EB020C5FEA500C50F140
:1009B000000041EB045170BD0EF0004E4EEA1131C3
:1009C00014EB5C04C2BFD4EB0C0541EA045170BDCA
:1009D00041F480114FF0000E013C90E645EA060E0E
:1009E0008DE60CEA135594EA0C0F08BF95EA0C0F3C
:1009F0003FF43BAF94EA0C0F0AD150EA01347FF484
:100A000034AF95EA0C0F7FF425AF104619462CE75A
:100A100095EA0C0F06D152EA03353FF4FDAE1046BD
:100A2000194622E750EA410618BF52EA43067FF40E
:100A3000C5AE50EA41047FF40DAF52EA43057FF49E
:100A4000EBAE12E74FF0FF3C06E000BF4FF0010CA9
:100A500002E000BF4FF0010C4DF804CD4FEA410C0D
:100A60007FEA6C5C4FEA430C18BF7FEA6C5C1BD0DA
:100A700001B050EA410C0CBF52EA430C91EA030F5B
:100A800002BF90EA020F0020704710F1000F91EAB8
:100A9000030F58BF994208BF90422CBFD8176FEA86
:100AA000E37040F0010070474FEA410C7FEA6C5C54
:100AB00002D150EA013C07D14FEA430C7FEA6C5C5B
:100AC000D6D152EA033CD3D05DF8040B704700BF87
:100AD0008446104662468C461946634600E000BFD5
:100AE00001B5FFF7B7FF002848BF10F1000F01BDA7
:100AF0004DF808EDFFF7F4FF0CBF012000205DF872
:100B000008FB00BF4DF808EDFFF7EAFF34BF0120F6
:100B100000205DF808FB00BF4DF808EDFFF7E0FF8F
:100B200094BF012000205DF808FB00BF4DF808EDE0
:100B3000FFF7CEFF94BF012000205DF808FB00BF47
:100B40004DF808EDFFF7C4FF34BF012000205DF829
:100B500008FB00BF4FEA410212F5001215D211D571
:100B60006FF47873B3EB625212D94FEAC12343F0AA
:100B7000004343EA505311F0004F23FA02F018BF2C
:100B8000404270474FF00000704750EA013005D1F5
:100B900011F0004008BF6FF0004070474FF00000B8
:100BA000704700BF4A0011D212F5001211D20DD5C4
:100BB0006FF47873B3EB62520ED44FEAC12343F063
:100BC000004343EA505323FA02F070474FF000000D
:100BD000704750EA013002D14FF0FF3070474FF0BC
:100BE000000070474FEA4102B2F1E04324BFB3F581
:100BF000001CDCF1FE5C0DD901F0004C4FEAC00294
:100C00004CEA5070B2F1004F40EB830008BF20F077
:100C10000100704711F0804F21D113F13872BCBF31
:100C200001F00040704741F480114FEA5252C2F186
:100C30001802C2F1200C10FA0CF320FA02F018BFCF
:100C400040F001004FEAC1234FEAD32303FA0CFC22
:100C500040EA0C0023FA02F34FEA4303CCE77FEAB1
:100C6000625307D150EA01331EBF4FF0FE4040F4FB
:100C70004000704701F0004040F0FE4040F40000AA
:100C8000704700BF7BB972B90029BEBF00204FF08A
:100C9000004106E008BF00281CBF6FF000414FF084
:100CA000FF3000F0B1B9ADF1080C6DE904CE0029B8
:100CB00009DB002B1ADB00F035F8DDF804E0DDE994
:100CC000022304B07047404261EB4101002B1BDB63
:100CD00000F028F8DDF804E0DDE9022304B040422A
:100CE00061EB4101524263EB43037047524263EBB5
:100CF000430300F017F8DDF804E0DDE9022304B057
:100D0000404261EB41017047524263EB430300F004
:100D100009F8DDF804E0DDE9022304B0524263EB98
:100D2000430370472DE9F0478C460E460446089D64
:100D3000002B50D18A4217466CD9B2FA82FEBEF11E
:100D4000000F0BD0CEF1200420FA04F401FA0EF6C5
:100D500044EA060C02FA0EF700FA0EF44FEA1749BD
:100D6000220CBCFBF9F01FFA87F809FB10C642EA17
:100D7000064600FB08F3B34209D9F61900F1FF3229
:100D800080F02281B34240F21F8102383E44F61ABD
:100D9000A2B2B6FBF9F309FB136642EA064403FB71
:100DA00008F8A04509D9E41903F1FF3280F00A815F
:100DB000A04540F20781023B3C44C8EB040443EAEF
:100DC00000400021002D62D024FA0EF400232C6094
:100DD0006B60BDE8F0878B4207D9002D55D000210C
:100DE00085E841000846BDE8F087B3FA83F10029A1
:100DF00040F09080B34202D3824200F2F880841A1D
:100E000066EB03060120B446002D40D085E81010A3
:100E1000BDE8F08712B90127B7FBF2F7B7FA87FEF2
:100E2000BEF1000F35D1F31B4FEA17481FFA87FCBC
:100E30000121B3FBF8F0220C08FB103642EA06460B
:100E40000CFB00F3B34207D9F61900F1FF3202D2CE
:100E5000B34200F2CE801046F61AA2B2B6FBF8F307
:100E600008FB136642EA06440CFB03FCA44507D9C1
:100E7000E41903F1FF3202D2A44500F2B580134613
:100E8000CCEB040443EA00409CE729462846BDE831
:100E9000F087CEF1200106FA0EF307FA0EF720FADA
:100EA00001F94FEA1748CE4049EA0309B6FBF8FAC0
:100EB0004FEA194408FB1A661FFA87FC44EA064306
:100EC0000AFB0CF29A4200FA0EF40AD9DB190AF175
:100ED000FF3180F087809A4240F28480AAF1020AB2
:100EE0003B449B1A1FFA89F9B3FBF8F108FB113355
:100EF00049EA034301FB0CF69E4207D9DB1901F1D5
:100F0000FF326BD29E4269D902393B449B1B41EAB6
:100F10000A418EE7C1F1200E22FA0EF48B402343E2
:100F200020FA0EF706FA01F44FEA134C26FA0EF6F1
:100F30003C43B6FBFCF9270C0CFB19661FFA83F83F
:100F400047EA064609FB08F7B74202FA01F200FA3F
:100F500001FA08D9F61809F1FF3041D2B7423FD95A
:100F6000A9F102091E44F61BA0B2B6FBFCF40CFB6F
:100F7000146640EA064704FB08F8B84507D9FF188D
:100F800004F1FF3028D2B84526D9023C1F4444EA78
:100F90000940C8EB0707A0FB02894F4544464E466F
:100FA00014D329D065B3BAEB040367EB060707FA3D
:100FB0000EFECB40CF404EEA030385E888000021B7
:100FC000BDE8F0871346F8E61046E0E6B8EB020409
:100FD00069EB03060138E5E70446D8E7114695E7D3
:100FE0008146C0E78A467CE7023B3C4448E7084626
:100FF0000AE702383E442FE7C245E7D33E46D1E731
:101000002946BDE8F08700BF704700BF82B00023CB
:1010100001930093274A136843F001031360254BA3
:101020001B6803F002030093019B01330193009BB3
:101030001BB9019BB3F5A06FF1D11E4B1B6813F0D8
:10104000020F02D00123009301E000230093009BD4
:10105000012B2CD11222184B1A60A3F580535A6829
:101060005A605A685A605A6842F480625A605A68F4
:1010700022F47C125A605A6842F460125A601A686C
:1010800042F080721A600B4B1B6813F0007FFAD09D
:10109000084B5A6822F003025A605A6842F0020272
:1010A0005A60044B5B6803F00C03082BF9D102B0C3
:1010B000704700BF001002400020024010B5184CDD
:1010C000D4F8883043F47003C4F88830154B1A689C
:1010D00042F001021A605A6802F47F025A601A68EC
:1010E00022F0847222F480321A601A6822F480227C
:1010F0001A605A6822F4FE025A60DA6A22F00F027D
:10110000DA621A6B22F0F02222F073021A630022D4
:101110009A60FFF77BFF4FF00063A36010BD00BF34
:1011200000ED00E00010024000F1080343604FF0C2
:10113000FF328260C360036100230360704700BF19
:1011400000230361704700BF43684B609A688A6060
:101150009A685160996008610368013303607047C1
:1011600030B40D68B5F1FF3F01D1026907E000F12D
:10117000080200E01A4653681C68A542FAD2536878
:101180004B6099608A6051600861036801330360B5
:1011900030BC704703694268816891608268416829
:1011A00051605A68904201D182685A6000220261FF
:1011B0001868013818607047074B23F00703074A87
:1011C000136000205060064A41F2F831516010600F
:1011D00059601A60704700BFB8020020A8020020C2
:1011E000B016002070B5044600F086FB224B1B6849
:1011F00023B9FFF7E1FF01221F4B1A6034B1083415
:1012000014F0070F02D024F007040834621E41F2E4
:10121000F6339A4228D819490B6801E0194613465B
:101220005A68944202D91A68002AF7D1144A9342A4
:101230001CD00D6808351A680A605A68121B102AFB
:101240000CD91E1972605C6074680C4900E011468C
:101250000A6850688442FAD832600E605968094AB8
:1012600013685B1A136002E0002500E0002500F01F
:10127000DDFB284670BD00BFB8160020A802002084
:10128000B016002004000020D0B170B50546A0F1D2
:10129000080600F031FB55F8044C0A4A00E01A46F3
:1012A000136859688C42FAD845F8083C166055F81E
:1012B000043C054A11680B44136000F0B7FB70BD95
:1012C000704700BFA8020020040000200B4B1B68E1
:1012D000B3F1FF3F08D04FF0500383F31188BFF301
:1012E0006F8FBFF34F8FFEE74FF0500383F31188EA
:1012F000BFF36F8FBFF34F8FFEE700BF08000020E2
:1013000006480068006880F3088862B661B6BFF3DB
:101310004F8FBFF36F8F00DF00BF000008ED00E0CC
:10132000DFF80C00016841F47001016070470000B3
:1013300088ED00E04FF0807340F8043C21F001019B
:1013400040F8081C054B40F80C3C40F8202C6FF08E
:10135000020340F8243C4438704700BFCD12000817
:10136000074B19680868B0E8F04F80F30988BFF3AD
:101370006F8F4FF0000080F311887047AFF300804B
:101380005C1700204FF0500383F31188BFF36F8F79
:10139000BFF34F8F0A4A136801331360012B0DD13D
:1013A000084B1B6813F0FF0F08D04FF0500383F376
:1013B0001188BFF36F8FBFF34F8FFEE7704700BFF9
:1013C0000800002004ED00E0094B1B6843B94FF012
:1013D000500383F31188BFF36F8FBFF34F8FFEE786
:1013E000013B034A13600BB983F31188704700BFB8
:1013F00008000020000000000000000000000000C5
:10140000EFF30980BFF36F8F154B1A681EF0100FB2
:1014100008BF20ED108A20E9F04F10604DF8043D20
:101420004FF0500080F31188BFF34F8FBFF36F8FE1
:1014300000F0DEFB4FF0000080F3118808BC196853
:101440000868B0E8F04F1EF0100F08BFB0EC108A2B
:1014500080F30988BFF36F8F704700BFAFF3008040
:101460005C17002008B54FF0500383F31188BFF3D9
:101470006F8FBFF34F8F00F047FA18B14FF08052D3
:10148000024B1A60002383F3118808BD04ED00E0CD
:10149000064B1B68064AA2FB0323DB08013B054AF7
:1014A00013600722044B1A60704700BF0000002041
:1014B000CDCCCCCC14E000E010E000E0314B1A6859
:1014C000314B9A4208D14FF0500383F31188BFF398
:1014D0006F8FBFF34F8FFEE72A4B1A682B4B9A4250
:1014E00008D14FF0500383F31188BFF36F8FBFF320
:1014F0004F8FFEE700B583B0254B1A78D2B2019228
:10150000FF221A701B78DBB28DF803309DF8033090
:1015100003F050031F4A137007221F4B1A6009E0A3
:101520001D4A1368013B13609DF803305B00DBB27A
:101530008DF803309DF8033013F0800FF0D1164A78
:1015400013681B0203F4E0631360019BDBB2104AD3
:101550001370124B1A6842F470021A601A6842F053
:1015600070421A60FFF794FF00220D4B1A60FFF7DC
:10157000D7FE0C4A136843F040431360FFF7C0FEE8
:10158000FFF7A4FE00ED00E071C20F4170C20F41F1
:1015900000E400E0BC160020C016002020ED00E0B2
:1015A0000800002034EF00E00A4B1B681B680BB9F1
:1015B000012300E0002323B14FF0FF32064B1A60F5
:1015C0007047044B1B68DB68DB685A68024B1A6083
:1015D000704700BFC81600207C17002010B50446D5
:1015E000006BFFF751FE2046FFF74EFE10BD00BF17
:1015F0002DE9F04780469946089D099F0A9C236B78
:1016000002F18042013A03EB820626F0070600232E
:1016100006E0C85CE21882F83400CA5C12B10133FB
:101620000F2BF6D9002384F84330042D00D904256C
:10163000E56265644FF0000AC4F848A0201DFFF77A
:101640007FFD04F11800FFF77BFD2461C5F105055E
:10165000A5616462C4F84CA084F850A04A46414693
:101660003046FFF767FE206007B13C60BDE8F087B9
:1016700038B5002407E004EB840293000E481844B8
:10168000FFF752FD0134042CF5D90C4D2846FFF725
:101690004BFD0B4C2046FFF747FD0A48FFF744FD82
:1016A0000948FFF741FD0948FFF73EFD084B1D6063
:1016B000084B1C6038BD00BFEC16002084170020CA
:1016C0009817002060170020D0160020AC170020CB
:1016D000C8160020E416002010B50446FFF752FE9D
:1016E000204A1368013313601F4B1B683BB91E4B24
:1016F0001C601368012B0DD1FFF7BAFF0AE01B4BEA
:101700001B683BB9184B1B68DA6AE36A9A4201D836
:10171000154B1C60164A136801331360E36A0122FB
:1017200002FA03F1134802680A43026003EB8303E1
:101730009A00211D10481044FFF706FDFFF744FEF4
:101740000A4B1B686BB1084B1B68DA6AE36A9A4262
:1017500007D24FF08052094B1A60BFF34F8FBFF38F
:101760006F8F10BD581700205C170020CC1600208A
:1017700080170020C0170020EC16002004ED00E0C8
:1017800070B504460E461D4B1D681D4B186804308D
:10179000FFF700FD50B91A4B1B68DA6A012303FA00
:1017A00002F218490B6823EA02030B60B4F1FF3F11
:1017B00007D136B1124B196804311348FFF7C4FC46
:1017C00070BD2C440E4B1B685C60A54207D90F4BC3
:1017D00018680B4B19680431FFF7C2FC70BD0C4B45
:1017E0001868074B19680431FFF7BAFC094B1B68EE
:1017F0009C4201D2074B1C6070BD00BF78170020CF
:101800005C170020C0170020AC170020E416002051
:10181000C81600207C1700202DE9F04385B006464D
:101820000F46154698469000FFF7DCFC60B18146F4
:101830005420FFF7D7FC044610B1C0F8309004E004
:101840004846FFF721FD00E000248CB100230393FC
:1018500002940D9B01930C9B009343462A46394604
:101860003046FFF7C5FE2046FFF736FF012001E0B6
:101870004FF0FF3005B0BDE8F08300BF00B583B086
:10188000174B019300230093802216491648FFF757
:10189000C3FF012814D14FF0500383F31188BFF325
:1018A0006F8FBFF34F8F4FF0FF32104B1A60012242
:1018B0000F4B1A6000220F4B1A60FFF7FFFD0BE081
:1018C000B0F1FF3F08D14FF0500383F31188BFF30D
:1018D0006F8FBFF34F8FFEE703B05DF804FB00BFCF
:1018E0007417002064840008C91B00087C170020BE
:1018F000CC16002078170020024A136801331360C9
:10190000704700BF50170020F8B53D4B1B68002BF7
:1019100069D13C4B1D6801351D60C5B93A4B1B6848
:101920001B6843B14FF0500383F31188BFF36F8FEF
:10193000BFF34F8FFEE7344A1168344B18681060CC
:101940001960334A136801331360FFF72DFE314BE2
:101950001B689D4203D200243AE0012400E00024E9
:10196000294B1B681B680BB9012300E0002323B13E
:101970004FF0FF32274B1A602AE0234B1B68DB68CD
:10198000DE6873689D4202D2224A136020E0371D50
:101990003846FFF7FFFBB36A1BB106F11800FFF7EB
:1019A000F9FBF36A012202FA03F11B4802680A43B9
:1019B000026003EB83039A00394618481044FFF78E
:1019C000C3FBF26A164B1B68DB6A9A42C5D2C7E7B3
:1019D000134B1B68DB6A03EB83039A000F4B9B5886
:1019E000012B06D806E00F4A136801331360002468
:1019F00000E001240C4B1B6803B101242046F8BD14
:101A00005017002078170020C8160020E416002088
:101A1000C41600207C170020C0170020EC16002000
:101A20005C170020E8160020C417002038B5344B9E
:101A30001B6843B94FF0500383F31188BFF36F8FD6
:101A4000BFF34F8FFEE7FFF79DFC2D4B1A68013A5D
:101A50001A601B68002B4CD12A4B1B6833BB002437
:101A60004AE0294BDB68DC6804F11800FFF792FBC1
:101A7000251D2846FFF78EFBE36A012202FA03F1D7
:101A8000224802680A43026003EB83039A00294656
:101A90001F481044FFF758FBE26A1E4B1B68DB6AC5
:101AA0009A4204D301221C4B1A6000E00024164B1A
:101AB0001B68002BD5D10CB1FFF776FD174B1C68C6
:101AC00054B1FFF721FF10B10122134B1A60013C02
:101AD000F7D10022114B1A600F4B1B685BB14FF01E
:101AE00080520F4B1A60BFF34F8FBFF36F8F0124EB
:101AF00002E0002400E00024FFF766FC204638BD29
:101B0000501700205817002060170020C017002031
:101B1000EC1600205C170020C4170020E8160020F7
:101B200004ED00E010B5A8B10446104B1B6843B1AA
:101B30004FF0500383F31188BFF36F8FBFF34F8FC4
:101B4000FEE7FFF7D9FE00212046FFF719FEFFF759
:101B50006DFF00E0002038B94FF08052044B1A604E
:101B6000BFF34F8FBFF36F8F10BD00BF5017002022
:101B700004ED00E010B51BE0FFF7BEFE0F4B1C6844
:101B8000FFF754FFA4B1FFF7FDFB0C4BDB68DC68EB
:101B9000201DFFF7FFFA0A4A1368013B1360094A48
:101BA0001368013B1360FFF70FFC2046FFF716FD9B
:101BB000044B1B68002BDFD110BD00BFD0160020E6
:101BC000581700205417002008B5FFF7D3FF064B25
:101BD0001B68012BF9D94FF08052044B1A60BFF3F8
:101BE0004F8FBFF36F8FF0E7EC16002004ED00E09D
:101BF0001F4B1B681BB101221E4B1A60704700224D
:101C00001C4B1A601C4B1B68B3FA83F3DBB2C3F1A5
:101C10001F0303EB83018A0018498A5842B94FF029
:101C2000500383F31188BFF36F8FBFF34F8FFEE72D
:101C300030B4124D9900CA18900028444268546884
:101C4000446019448A0008322A44944205D16068ED
:101C500003EB83018A002A44506003EB83039A005C
:101C6000064B1A445368DA68054B1A6030BC70475B
:101C700050170020C4170020C0170020EC160020C9
:101C80005C17002043180139032940D8DFE801F030
:101C900035120A025A1E13F8013C83F080033F2BD1
:101CA00038D813465A1E13F8013C83F080033F2BAB
:101CB00001D932E01A4612F8012C82F080033F2B42
:101CC0002ED80378E03B142B17D8DFE803F00B166F
:101CD00016161616161616161616160E16161116B1
:101CE000161614009F2A08D81DE09F2A05D91DE06A
:101CF0008F2A02D81DE08F2A1ED8037883F0800235
:101D0000412A1CD9F42B1DD96FF0050070476FF0E4
:101D1000050070476FF0050070476FF005007047D1
:101D20006FF0050070476FF0050070476FF0050019
:101D300070476FF0050070476FF0050070476FF057
:101D4000050070470020704770B505460E46002418
:101D50000DE02B5D0A4AD15C0131C9B20C44A642A8
:101D600009D32846FFF78EFF40B92B5D0BB1B44273
:101D7000EFD3204670BD6FF0050070BD70BD00BF91
:101D8000188500080278407840EA0220704700BFBA
:101D9000030A0B7048707047B9B170B50E4604461F
:101DA000042100F07FFD0546436862221A704368F3
:101DB00002225A70416811443046FFF7E9FF294674
:101DC000204600F0C1FD002070BD6FF00600704796
:101DD000C1B170B50E460446042100F063FD05460E
:101DE00098B1436870221A70436802225A704168A1
:101DF00011443046FFF7CCFF2946204600F0A4FDF1
:101E0000002070BD6FF0060070474FF0FF3070BDCE
:101E1000C1B170B50E460446042100F043FD0546ED
:101E200098B1436850221A70436802225A70416880
:101E300011443046FFF7ACFF2946204600F084FDF0
:101E4000002070BD6FF0060070474FF0FF3070BD8E
:101E5000C1B170B50E460446042100F023FD0546CD
:101E600098B1436840221A70436802225A70416850
:101E700011443046FFF78CFF2946204600F064FDF0
:101E8000002070BD6FF0060070474FF0FF3070BD4E
:101E900070B400231360012510E0C45C04F07F04DB
:101EA000166805FB04641460C456002C01DB581C42
:101EB0000BE0ED01B5F5001F05D201338B42ECDBE1
:101EC0004FF0FF3001E06FF0010070BC704700BFC1
:101ED000012209E000F07F030B70C00909D063F014
:101EE0007F0301F8013B0132042AF3DD4FF0FF309C
:101EF00070471046704700BF70B505460E46144641
:101F000001681046FFF744FF286822463146023038
:101F100002F067FB02342B681C442C6070BD00BFCC
:101F200038B50546002408E002F020FB2B5D18447C
:101F3000437813F0070F05D001342B5D002BF3D14C
:101F4000204638BD4FF0FF3038BD00BF29B93BB93E
:101F500008B5036AC069984708BD6FF00300704771
:101F60006FF00300704700BF71B9022B0FD11178D9
:101F7000527811F0010F00D062B9052A0DD808B5CA
:101F8000836A406A984708BD6FF0030070476FF09E
:101F9000030070476FF0030070476FF00300704755
:101FA00061B910B50446022B0BD11046FFF7EAFECB
:101FB000014648B1A36B606B984710BD6FF00300FA
:101FC00070476FF0030010BD6FF0030010BD00BF3D
:101FD00061B910B50446022B0BD11046FFF7D2FEB3
:101FE000014648B1236DE06C984710BD6FF00300C7
:101FF00070476FF0030010BD6FF0030010BD00BF0D
:10200000F1B9012B1FD92DE9F0411F461646804634
:102010001046FFF7B7FE0146C0B1B21C144604E0FB
:10202000257815F07C0F15D10134F519AC42F7D3A2
:10203000D8F85840BB1ED8F85400A047BDE8F0813E
:102040006FF0030070476FF0030070476FF00300FC
:10205000BDE8F0816FF00300BDE8F08161B910B513
:102060000446022B0BD11046FFF78CFE014648B107
:10207000236EE06D984710BD6FF0030070476FF05E
:10208000030010BD6FF0030010BD00BF38B505465A
:102090000C466C22002102F0CAFA204602F070FAC7
:1020A000286020B104446C60A860002038BD4FF067
:1020B000FF3038BD2DE9F843CB69934243D90C6812
:1020C000002502E023681D44A4683CB19542F9D381
:1020D0002346002604E001369B6801E023460026E3
:1020E000002BF8D196B391468046F00002F048FAF2
:1020F000074670B36268C5EB0903134403602368A5
:10210000C9EB05051D444560A368012208E007EB03
:10211000C201586847F832001868486001329B686D
:10212000002BF4D10D4802F0BDFBD8F81830324630
:102130003946D8F8140098470446384602F028FA81
:102140002046BDE8F8830020BDE8F8830020BDE804
:10215000F8834FF0FF30BDE8F88300BF9884000893
:1021600039BB30B589B00446022B25D11046FFF7A4
:1021700009FE054618B3236C0146E06B984700281A
:102180001FDB684600F06CFB29466846FFF704FE3B
:10219000054648B9002269462046FFF78BFF079B9A
:1021A000984201D06FF00D05684600F077FB284695
:1021B00007E06FF0030070476FF0030001E06FF07D
:1021C000030009B030BD00BF022927D130B589B066
:1021D0000446022B25D11046FFF7D4FD054618B35F
:1021E000A36C0146606C984700281FDB684600F02E
:1021F00037FB29466846FFF7EBFD054648B9002244
:1022000069462046FFF756FF079B984201D06FF0C2
:102210000D05684600F042FB284607E06FF003001A
:1022200070476FF0030001E06FF0030009B030BDAC
:102230002DE9F04F93B0C1F34108012B40F2B0807B
:1022400001F00806F6B201F00101002940F0AB8070
:102250001C46154607461046FFF794FD8346831C2F
:102260009C42C0F0A380B8F1000F04D0B8F1020F77
:1022700000F29F8011E0002E40F09E800246A91CD3
:10228000284602F0B9F9CBEB0404023C0BF1020A38
:10229000AA44A9460023099313E005F10209031D8E
:1022A0009C42C0F08C8002302844FFF76BFD0990FF
:1022B000002800F08780CBEB0404043C0BF1040AF7
:1022C000AA44002309F80B3059464846FFF73CFD65
:1022D00083457AD14A4604E02B2B79D0232B7AD040
:1022E00001321378002BF7D199F80030242B19D143
:1022F0003C49484602F03DFB81451FD1BB6ECDF8FD
:10230000188005960494CDF80CA0374A029200205C
:102310000021CDE9000109F106020999786E98477C
:1023200004460CE03D6BCDF80880019600945346BE
:102330004A460999F86AA847044600E00024002CA0
:102340004CDB0AA800F08CFAB8F1010F08D0B8F104
:10235000020F0AD109990AA8FFF75AFD044604E0C2
:1023600009990AA8FFF774FD04465CB9B8F1000F9B
:1023700008D000220AA93846FFF79CFE119B98421C
:1023800004D108E0B8F1000F03D104E06FF00D04B0
:1023900001E06FF00D040AA800F080FA20461EE06C
:1023A0006FF003001BE06FF0030018E06FF0030014
:1023B00015E06FF0030012E06FF003000FE06FF024
:1023C00003000CE06FF0030009E06FF0030006E08B
:1023D0006FF0030003E06FF0030000E0204613B04D
:1023E000BDE8F08FA8840008D486000838B501F055
:1023F0000F050C09023C0B2C2BD8DFE804F00A0E69
:1024000012161A1E2A222A262A062946FFF79EFDA0
:1024100038BD2946FFF7A8FD38BD2946FFF708FF5C
:1024200038BD2946FFF7BCFD38BD2946FFF798FEA9
:1024300038BD2946FFF7C8FE38BD2946FFF7C8FD5D
:1024400038BD2946FFF7DCFD38BD2946FFF706FEFB
:1024500038BD6FF0030038BDF0B583B006460023E9
:102460000193036942688168521AC068984720B98D
:102470003368B3606FF001004AE0044600283DDB9A
:1024800002462449244802F087F9B3681C44B4602A
:1024900073689C4235D83468B1682746091B012906
:1024A0001FDD01AA0139601CFFF7F2FC0546B0F1FF
:1024B000FF3F16D010F1020F26D0019B1A180132EF
:1024C0002244B1688A420CD8421C2244217830460A
:1024D000FFF78CFF00281BDB019B1D4401352C44BA
:1024E000DAE73068844212D93F1A3A46214602F0B0
:1024F00083F8B368DF1BB760002009E06FF00200CB
:1025000006E06FF0080003E06FF0030000E0002039
:1025100003B0F0BD6C840008B08400082DE9F04FD2
:1025200089B0054601900491164605921C46BDF8F7
:10253000503003939DF854A0BDF864B0052100F01D
:10254000B1F9002800F0D48007460A21284600F09F
:10255000A9F90546002800F0CE803046FFF7E0FCE0
:102560001FFA80F909F10C0604B10224139B1BB178
:10257000129B002B00F0C280129B6BB144F004044C
:102580001846FDF73DFE1FFA80F841461298FFF706
:10259000DBFB404502D0B4E04FF00008BAF1010F78
:1025A00006D0BAF1000F08D0BAF1020F03D0ABE0A9
:1025B00044F00C0401E044F01404169B0BB144F009
:1025C000240414F0040F04D008F10403039A134404
:1025D0001E44179B1BB9189B002B40F09880179B3B
:1025E000002B00F09780189B002B00F09680179B23
:1025F00083B144F080041846FDF702FE1FFA80FA0A
:1026000051461798FFF7A0FB504540F0898056448B
:10261000023601E04FF0000A189B1BB144F0400461
:102620005E440236A6F10A01019800F03BF90290DF
:102630007B6810221A70796801313046FFF748FC38
:10264000002870DB013038606B6800221A706A68FD
:10265000042353706A684D2191706A685121D170CA
:10266000696854220A7169684A716A6893716B6873
:10267000DC71696808310498FFF78AFB029B5B688C
:1026800008A840F8043D4A460599FFF735FC14F0C8
:10269000040F0ED0139B13B90393254B139342469B
:1026A000129907A8FFF728FC039A139907A8FFF7C8
:1026B00023FC14F0800F04D05246179907A8FFF7A7
:1026C0001BFC14F0400F04D05A46189907A8FFF7D6
:1026D00013FC3946019C204600F036F92946204675
:1026E00000F032F90299204600F02EF900201CE09B
:1026F0004FF0FF3019E04FF0FF3016E06FF00600AA
:1027000013E06FF0050010E06FF006000DE06FF0D1
:1027100006000AE06FF0060007E06FF0060004E034
:102720006FF0050001E06FF0070009B0BDE8F08F21
:10273000D48600082DE9F04F83B09DF8347000294D
:1027400071D08846002504E0232C6FD02B2C70D04C
:102750000135545D002CF7D19946144606462946AA
:102760001046FFF7F1FA854266D10521304600F0A8
:1027700099F88246002862D0436830221A700E9B76
:1027800023B14268137843F0010313700C9BEB18DC
:1027900003F1020B012F03D09FB1022F09D051E0AA
:1027A000DAF804100A7842F002020A7003F1040B0E
:1027B00007E0DAF804100A7842F004020A7003F124
:1027C000040BDAF8041001315846FFF781FB0028AA
:1027D0003BDB0130CAF800000C9BC3EB0B01304619
:1027E00000F060F8834698B3436802A840F8043DBF
:1027F000AAB22146FFF780FB1FB101994046FFF7BF
:10280000C7FA5146304600F09FF85946304600F06E
:102810009BF80C9BFBB10F9B0C9A4946304600F08D
:10282000A1F8002018E06FF0060015E06FF0060038
:1028300012E06FF006000FE06FF005000CE04FF0C3
:10284000FF3009E06FF0060006E06FF0070003E0DC
:102850004FF0FF3000E0002003B0BDE8F08F00BF74
:102860000023036043608360C3604361836103614D
:10287000C361704738B50546002405E0EB6853F89E
:10288000240001F085FE01346B699C42F6D3E868B0
:1028900001F07EFE2846FFF7E3FF38BD08B5FFF7DD
:1028A000E9FF08BD2DE9F84304460E4601F10C0589
:1028B0006B4203F003031D4483689D422ED9426995
:1028C00083699A4218D15B005F1C4FEA870948462A
:1028D00001F056FE804600282FD04A46002101F024
:1028E000A6FEA269E168404601F07BFEE06801F0C7
:1028F0004FFEA761C4F80C802F46B5F5806F38BF36
:102900004FF48067384601F03BFEC8B16269511C44
:102910006161E16841F82200A760206120690660DA
:1029200023690C3343600023836023692B442361B4
:10293000A3685D1BA560BDE8F8830020BDE8F883AF
:102940000020BDE8F88300BF00238B60436813B10B
:102950009960416001E0016041600B68C269134405
:10296000C36170472DE9F0410546884616461F466B
:102970000BB90C2100E011462846FFF793FF0446EF
:1029800088B137B10C3060603246414601F029FE13
:1029900002E0C0F80480066021462846FFF7D4FF15
:1029A0000020BDE8F0814FF0FF30BDE8F08100BFAE
:1029B00007E0013300E0002342F6DF629342F8D9DA
:1029C00001380028F7D17047034A136823F0030346
:1029D00018431060704700BF00200240014BD860D0
:1029E000704700BF0020024070B4002341E0012284
:1029F0009A400C68A2433BD10A79013AD2B2012A2B
:102A00001CD885685A000324944025EA0404846095
:102A100085684C7904FA02F22A4382608488A5B260
:102A20009AB20124944025EA040484808588ADB2DA
:102A30008C7904FA02F292B22A43828004685A0026
:102A4000032505FA02F624EA0604046006680C79F8
:102A5000944034430460C4689EB27600B54024EAD2
:102A60000505C560C568CC7904FA02F22A43C26044
:102A700001330F2BBBD970BC704700BF8161704719
:102A8000018570470AB1816170470185704700BFB9
:102A900030B401F007039B009A40C908083150F890
:102AA00021400F2505FA03F324EA030340F82130FF
:102AB00050F821301A4340F8212030BC704700BF45
:102AC000C378FBB1154BDB68DB43C3F30223C3F1CF
:102AD00004010F22DA40437803FA01F183781340AE
:102AE0000B431B010278DBB20D490A4482F8003324
:102AF0000378580903F01F03012202FA03F341F897
:102B00002030704703785A0903F01F03012101FAAE
:102B100003F32032024941F82230704700ED00E013
:102B200000E100E070B46F4B5B6803F00C03042B12
:102B300005D0082B06D0FBB96B4B03601EE06A4B37
:102B400003601BE0674A53685268C3F38343023350
:102B500012F4803F04D1654A02FB03F303600DE0E9
:102B6000604AD26A02F00F02511C5F4AB2FBF1F2D6
:102B700002FB03F3036001E05B4B0360594A5368B7
:102B8000C3F303135A4EF35CDBB2056825FA03F373
:102B900043605168C1F30221715CC9B223FA01F1AB
:102BA00081605468C4F3C224345DE4B2E340C3607E
:102BB0005468C4F381344F4E345DE4B2B3FBF4F493
:102BC00004615468C4F3C3644B4E345DE4B2B5FB96
:102BD000F4F44461126B12F0400F03D148F2120278
:102BE000826102E04FF4004282613E4A126B12F0B1
:102BF000100F02D13C4AC26100E0C561394A126B34
:102C000012F0200F02D1384A026200E00562354A14
:102C1000126B12F0030F01D1436219E0314B1B6BB1
:102C200003F00303012B01D1456211E02D4B1B6B17
:102C300003F00303022B03D14FF40043436207E088
:102C4000284B1B6B03F00303032B01D1264B43627C
:102C5000244B1B6B13F4403F01D181621CE0214BDC
:102C60001B6B03F44033B3F5803F01D1856213E061
:102C70001C4B1B6B03F44033B3F5003F03D14FF4FF
:102C80000043836208E0174B1B6B03F44033B3F53A
:102C9000403F01D1144B8362124B1B6B13F4402F46
:102CA00001D1C1621CE00F4B1B6B03F44023B3F551
:102CB000802F01D1C56213E00A4B1B6B03F4402344
:102CC000B3F5002F03D14FF40043C36208E0054B76
:102CD0001B6B03F44023B3F5402F01D1024BC362B9
:102CE00070BC70470010024000127A0000093D00DD
:102CF000200000200C0000201000002021B1054B16
:102D00005A69104358617047024A536923EA000028
:102D1000506170470010024021B1054B9A69104381
:102D200098617047024A936923EA000090617047F6
:102D30000010024021B1054BDA691043D861704799
:102D4000024AD36923EA0000D061704700100240B4
:102D500030B58DB004460D46036823F001030360CF
:102D6000436823F440528B6813434360036823F4A1
:102D7000B05222F00C024968EB6819432B690B43EF
:102D800013430360836823F440726B6913438360C9
:102D90006846FFF7C7FE174B9C4201D1099A05E030
:102DA000154B9C4201D10A9A00E00B9A236813F458
:102DB000004F06D052002968B2FBF1F301FB132249
:102DC00004E02968B2FBF1F301FB13222968B2EB9E
:102DD000510F00D30133226812F4004F06D0C3F321
:102DE000420223F00F031B041B0C13439BB2A3816D
:102DF0000DB030BD003801400044004021B10368EF
:102E000043F0010303607047036823F0010303608C
:102E1000704700BF21B1036843F40043036070476B
:102E2000036823F400430360704700BFC1F3080147
:102E300001857047808CC0F30800704730B4C1F33F
:102E40000725C9B2012303FA01F1022D01D1041DA6
:102E500004E00446032D01D100F108041AB12368EF
:102E60001943216003E0236823EA0101216030BC9B
:102E7000704700BFC3690B4201D00120704700209A
:102E8000704700BF0162704710B4C1F30722CCB293
:102E90000123A340012A02D10268134006E0022A5E
:102EA00002D14268134001E082681340090C0122FC
:102EB00002FA01F1C269114013B119B9002002E010
:102EC000002000E001205DF8044B7047090C01234D
:102ED00003FA01F10162704708B50220FFF774FDA3
:102EE0003420FFF77BFD08BD00B583B001214FF40E
:102EF0000030FFF703FF012300938DF80430002317
:102F00008DF8063002228DF805208DF807306946CD
:102F10004FF09040FFF768FD03B05DF804FB00BF81
:102F2000F0B58FB00D46364902F066FB00900024E4
:102F300009E001343249002002F05EFB0EAB03EBE6
:102F4000840343F8380C0EAB03EB840353F8383C8E
:102F50000BB10B2CEDD92B4E31460C9802F04CFBEB
:102F600007463146002002F047FB06460C2C41D1B3
:102F70003B78562B40D0019B1B78AB70029B1B7893
:102F8000EB70039801F023F985ED020B049B1B788D
:102F90002B74059801F01BF985ED060B069B1B7839
:102FA00085F82030079801F012F985ED0A0B089B8F
:102FB0001878FDF7BFFAC5E90C01099B1B7885F865
:102FC00038300A9B1B7807EE903AF8EE677AC5ED29
:102FD0000F7A0B9B1B7807EE903AF8EE677AC5EDF7
:102FE000107A3B7885F84430304601F0F3F8A86455
:102FF000012002E0002000E000200FB0F0BD00BF83
:10300000188600081C86000810B5044600234354A7
:103010002421204601F082FC04460622034901F0E7
:1030200093FC0028F4D1204610BD00BF2086000884
:1030300008B5002204214FF09040FFF723FD08BDA2
:1030400008B5012204214FF09040FFF71BFD08BD99
:10305000F0B58BB001214FF40030FFF74FFE042391
:10306000089301248DF8244000258DF8265002276E
:103070008DF825708DF8275008A94FF09040FFF784
:10308000B3FC21464FF48020FFF738FE204E072284
:1030900006213046FFF7FCFC072211463046FFF7B9
:1030A000F7FC8DF824708DF826508DF827408DF8A8
:1030B0002570C023089308A93046FFF795FC2146E8
:1030C0004FF48040FFF728FE124E21463046FFF7AE
:1030D000A1FE4FF4E13302930C2306934FF4805387
:1030E000039305950495079502A93046FFF730FE36
:1030F00025238DF804308DF805508DF8074001A880
:10310000FFF7DEFC21463046FFF778FE0BB0F0BD3E
:10311000000400480038014008B501214FF09040FC
:10312000FFF7ACFC0A20FEF7FDFC01214FF09040B8
:10313000FFF7A6FC0A20FEF7F5FCEEE70000000012
:1031400010B50D4C2046FDF717FA09A3D3E900236B
:10315000FDF7B4F8FDF746FD0446DFED080A00EE82
:10316000100A00F0F9FB1420FEF7DCFCEAE700BFD0
:103170002D431CEBE2361A3F30FBE9420A9812421B
:1031800008B5FFF7A9FEFFF7AFFE024B1B681B68EF
:10319000984708BD3000002038B505468368984739
:1031A0002B6A0A2098476B6898472B6A0A20984731
:1031B00001222B492B48FFF741FE2C6906230A22E6
:1031C00029492A48A0470028F7D02C690623052260
:1031D00025492748A0470028EFD02C6903230A225D
:1031E00024492548A0470028E7D02C69032305225D
:1031F00022492348A0470028DFD02C690323052259
:103200001E492048A0470028D7D02C690323142248
:103210001D491E48A0470028CFD02C690323142243
:1032200011491B48A0470028C7D02C6903234FF43D
:1032300061720D491748A0470028BED02C690323AE
:1032400014220E491448A0470028B6D02C69032345
:10325000142212491248A0470028AED038BD00BF42
:103260000501050000480040288600082C8600085B
:10327000348600083C86000844860008D48600088E
:10328000508600085C860008688600087086000882
:103290008086000894860008A0860008648B0008D9
:1032A000AC86000800B583B0FFF76AFF0F4C2068BA
:1032B00000F020FD2068FFF76FFF00F011FB0024F5
:1032C0000194012500952346802209490948FEF70B
:1032D000A3FA0194009523464FF40072064907486B
:1032E000FEF79AFAFEF7CAFAFEE700BF4C0000208C
:1032F000D886000819310008E0860008413100082E
:1033000008B5024801F0CEFA002008BD0087000889
:1033100008B5024801F040FA002008BD18870008EF
:1033200070B516461D461A46074801F035FA0024C6
:1033300005E0325D2146054801F02EFA0134AC4229
:10334000F7D3002070BD00BF4487000888870008BD
:1033500008B5024801F020FA002008BD988700084F
:1033600008B5A0F8B010024801F016FA002008BD18
:10337000C487000808B5A0F8B010024801F00CFAA4
:10338000002008BDEC87000808B5024801F004FAE7
:10339000002008BD1488000808B5024801F0FCF9B7
:1033A000002008BD3C88000870B584B00D46144666
:1033B00009999DF82820A0F8B050C0F8A41080F812
:1033C000A8200293089B019300942B46194801F012
:1033D000E3F92378242B2AD16378632B27D1A378B0
:1033E000722B24D1E378652B21D12379712B1ED147
:1033F00063792F2B1BD101E0013500E006252E4615
:10340000635D2F2B04D02046FCF7FAFE8542F3D3F0
:103410002046FCF7F5FE864209D2013634442046A8
:10342000FCF7EEFE02462146034801F0DAF80020E0
:1034300004B070BD788800081429002010B5044637
:10344000214BC0F8903041F27273A0F894304FF0E5
:10345000FF3303600023C0F89C3080F8B2304FF493
:103460007A710430FEF712FE30B10146174801F0C0
:1034700093F94FF0FF3010BD154B6361154BE361BD
:10348000154BE362A462154B63622462144B6363C1
:103490002463144BE363A463134B63642464134BEE
:1034A000E364A464124B63652465124BE365A46571
:1034B000114B63662466114BE366A46604F1700049
:1034C000FFF7CEF9002010BDE0880008F088000862
:1034D00029360008FD36000899330008013300083A
:1034E000A9330008893300087533000861330008E8
:1034F000513300082133000811330008013500085A
:103500002DE9F04E9EB0834689469246DDE9264578
:10351000299F2A9E6422002105A801F088F8ABF8B3
:10352000B09051460BF1B20001F006FA2B9B0093CC
:103530009DF8B03052464946324801F02DF954EA20
:1035400005032CD04FF47A72002320462946FDF75C
:1035500099FB1EAB43F8680D184600F0FFFE81464C
:10356000D0F814A0D0F810B04FF47A72002320469F
:103570002946FDF787FBD9F80C300392D9F80020D3
:103580000292D9F804200192D9F8082000920BF198
:1035900001020AF26C711C4801F0FEF802E01B48BF
:1035A00001F080F9289B23B11946194801F0F4F87D
:1035B00002E0184801F076F93146174801F0ECF8BE
:1035C00000240CE03D5D14F00F0F02D1134801F010
:1035D000E3F82A462946124801F0DEF80134B442E5
:1035E000F0D30A2001F0F0F83246394605A800F081
:1035F000F8FF05A90B4801F0CFF800201EB0BDE888
:10360000F08E00BF1C890008608900089C890008B2
:10361000B8890008D8890008F8890008388A0008A5
:10362000448A0008508A000838B50C461546074BF6
:103630001B68586800F0A0FC30B12A462146034BB5
:10364000186800F063FD38BD002038BD5C00002024
:103650002DE9F04389B007460E4690469946109DE5
:1036600000240294119801900095124801F094F8FA
:103670007037ADB24046FCF7C3FD80B20790CDF87D
:103680001880059604940394029401940094119B6D
:103690004A4629463846FEF741FF30B10146064802
:1036A00001F07AF84FF0FF3000E0002009B0BDE8EB
:1036B000F08300BF5C8A0008B08A0008F0B589B0CA
:1036C00006460C460A460A49684601F003F9094DC8
:1036D0002B681F690123052207496846B8472B68F4
:1036E0005B694FF4FA7221463046984709B0F0BD45
:1036F0002C8B00084C000020288B00082DE9F04F8F
:10370000ADF2044D89469346184801F0CBF80027E6
:10371000B8461CE04FEAC70A09EB0A0559F83760BA
:10372000002404E0315D124801F036F801346B6882
:10373000A342F7D80A2001F047F86A6859F80A103E
:103740000DEB080000F04DFF6B68984401375F45B2
:10375000E0DB41466846FFF7B1FF064801F0A2F8FA
:1037600040460DF2044DBDE8F08F00BFA88B000865
:10377000B88B0008C08B00082DE9F041CEB005469B
:10378000FCEEC07ACDED057ABDF81440C4EB4413CD
:1037900004EB830303EB83031A0192B2DFED3D7A5E
:1037A00020EE277A06EE902AB8EEE60A37EE400AB7
:1037B000BCEEC07A8DED057ABDF81470BCEEE07AEF
:1037C0008DED057ABDF81460C6EB461306EB830356
:1037D00003EB83031A0192B260EEA77A07EE102A78
:1037E000F8EEC70A77EEE00AFCEEE07ACDED057A56
:1037F000BDF814805422284939A800F0F2FECDF813
:10380000048000963B46224639A907A801F062F8D9
:1038100007A8FCF7F5FC064600F1030887B240460E
:1038200000F0AEFE28B91D491D4800F0B5FF00208C
:103830002DE00446012303703F0A47708670B2B240
:1038400007A9033000F0CDFE2B6FE3B9154E07AB8F
:10385000009301231A463146134800F09DFF0121D1
:103860000391002302930191CDF800802346324654
:1038700005F17000FEF75EFF0546204600F088FE69
:1038800025B9002003E06FF0060000E028464EB0A6
:10389000BDE8F08100401C46208C0008E886000846
:1038A000CC8B0008F0840008EC8B000810B52DEDDF
:1038B000028B0446B0EE408AF0EE608A0122114687
:1038C000064800F069FFF0EE680AB0EE480A2046AC
:1038D000FFF752FFBDEC028B10BD00BF748C0008D7
:1038E000F0B583B01948FFF7A9FD002828DB174879
:1038F000174AC0F89C2000240194782300931346B3
:103900001449FFF7A5FE17E0104800F170050022EA
:1039100029460430FEF7CEFB06462846FEF7AAFFEE
:103920004EB14FF47A70FFF743F8A5F16C00FEF743
:1039300093FD074638B10134022CE5DD384602E03C
:103940004FF0FF30FFE703B0F0BD00BFC817002005
:103950006C8D0008788D000838B5084C2046FFF7BC
:10396000A5FF04F1700500222946201DFEF7A2FBE9
:1039700004462846FEF77EFF204638BDC8170020C3
:10398000074B1B68074AA2FB0323C3F3D703013B82
:10399000054A53600023936005231360704700BFFE
:1039A00000000020CDCCCCCC10E000E0B0F1FF3F17
:1039B00007D0013005E0044B1B6813F4803F00D0B2
:1039C00001380028F7D1704710E000E008B5044B3B
:1039D0001B680A460146186800F098FB08BD00BF46
:1039E0004C00002008B5044B1B681B6801220349EA
:1039F0001868FFF723FA08BD4C00002004010400FA
:103A000070B586B01646144D2C6805230A4601464B
:103A1000206800F0C7FA0446286833460B2201A943
:103A2000006800F021FB0B2811D106AB18440023DD
:103A300000F8143C4F2101A800F070FF022201465B
:103A4000064800F0CBFBB0FA80F0400900E000200F
:103A500000B1204606B070BD4C000020288600084A
:103A60002DE9F04F93B00290894603929A4608469A
:103A7000FCF7C6FB8346002634460196504B994519
:103A80003FD1504D2F68DDF808804046FCF7B8FB69
:103A9000052302464146386800F084FA2868039BF3
:103AA000322205A9006800F0DFFA12AB18440023A7
:103AB00000F8343C44494046FCF798FB70B99DF847
:103AC0001D30303B03EB83035E009DF81E30303B1E
:103AD0001E440F2ED4BF0026012667E03B49029802
:103AE000FCF784FB30B99DF81E60312E14BF002610
:103AF00001265BE036490298FCF778FB002854D099
:103B000054E03222002105A800F091FD2D4B1D68E4
:103B1000029F3846FCF774FB0523024639462868A5
:103B200000F040FA039D4FF0000805AF294B1B68D9
:103B300013F4803F00D0013D012C16D014B1022CAB
:103B400023D02EE01F4B1B6801223946186800F075
:103B5000DDFA30B33A7899F800309A4221D108F171
:103B600001080197013701241BE0164B1B68012255
:103B70003946186800F0CAFA10B1013708F1010897
:103B80005FFA8BF398450BD20BE05FFA8BF2019949
:103B9000484600F023FBB0FA80F67609002400E0E6
:103BA00002241EB9002DC1D100E001261EB9BAF1D0
:103BB000010A7FF463AF304613B0BDE8F08F00BF59
:103BC000D48600084C000020508600085C8600085F
:103BD000A086000810E000E008B5002208214FF0A0
:103BE0009040FEF74FFF0520FFF7E0FE012208217D
:103BF0004FF09040FEF746FF0A20FFF7D7FE002265
:103C000008214FF09040FEF73DFF08BD08B50022A7
:103C100002214FF09040FEF735FF08BD08B50122A4
:103C200002214FF09040FEF72DFF08BDF0B58BB09C
:103C300001214FF40030FFF761F80A2108910125B6
:103C40008DF8245000248DF8264002278DF8257029
:103C50008DF8274022464FF09040FEF713FF08A949
:103C60004FF09040FEF7C0FE204E0722082130465C
:103C7000FEF70EFF072209213046FEF709FF8DF8F7
:103C800024708DF826408DF827508DF825504FF47C
:103C90004073089308A93046FEF7A6FE29464FF464
:103CA0008020FFF747F8124E29463046FFF7B2F85A
:103CB0004FF4E13302930C23069303940594049488
:103CC000079402A93046FFF743F827238DF8043004
:103CD00006238DF8053001A8FEF7F2FE294630468E
:103CE000FFF78CF8FFF74CFE0BB0F0BD0004004866
:103CF0000048004010B50446FFF798FF094B1B68C9
:103D00002360094BA360094BE360094B6360094BD7
:103D10002361094B6361094BA361094BE361094BC3
:103D2000236210BD5C0000201D3C00080D3C000813
:103D3000D93B0008613A0008013A0008E53900085B
:103D4000CD390008AD390008704700BFFEE700BF5D
:103D5000FEE700BFFEE700BFFEE700BF704700BF01
:103D600070B508213848FFF785F8012803D10821EC
:103D70003548FFF787F835493548FFF785F80028BB
:103D800033D032493248FFF7A1F8324B1B685C68E8
:103D9000D4F80024D4F804546E1C2F48A6FB00016C
:103DA000731A01EB53035B0AC3EB8323F31A9A42A2
:103DB00005D1002225492648FFF740F815E02448A0
:103DC000FFF738F86055234B1B685C68D4F804246F
:103DD00001322148A2FB0001531A01EB53035B0A95
:103DE000C3EB8323D31AC4F804341C491848FFF7E3
:103DF0004BF840B319491648FFF768F8154B1B6894
:103E00009B68D3F80024D3F804148A4205D1002219
:103E100012490F48FFF712F870BD995C0C48FFF784
:103E200005F80C4B1B689C68D4F8002401320A4842
:103E3000A2FB0001531A01EB53035B0AC3EB83237C
:103E4000D31AC4F8003470BD0048004005010500D5
:103E50000038014060000020051040000701070005
:103E6000704700BF70B508213148FFF703F818B15B
:103E700008212F48FFF706F82E492D48FFF704F8D0
:103E8000F8B12D4B1B68586800F060F8C8B12A4C97
:103E900023685D68D5F804642548FEF7CBFFA85574
:103EA00023685C68D4F8042401322448A2FB000192
:103EB000531A01EB53035B0AC3EB8323D31AC4F8F1
:103EC00004341F491A48FEF7DFFF38B3184D1C4968
:103ED0002846FEF7FBFF184C23689B68D3F80024A4
:103EE000995C2846FEF7A2FF2468A568D5F800244F
:103EF00001321248A2FB0001531A01EB53035B0A83
:103F0000C3EB8323D31AC5F80034A06800F034F85B
:103F100020B900220A490648FEF790FF09490448E3
:103F2000FEF7B2FF18B107490148FEF7CFFF70BD99
:103F300000480040050105005C000020051040001D
:103F40000701070004010400704700BF30B4D0F837
:103F50000034D0F80404181A00F2FE30054CA0FB1F
:103F60000445431B05EB53035B0AC3EB8323C01AD1
:103F700030BC70470510400030B4D0F80434D0F89D
:103F80000004181A00F2FF30054CA0FB0445431B47
:103F900005EB53035B0AC3EB8323C01A30BC7047A5
:103FA00005104000002A53D0F8B504460F461D46C0
:103FB00016468068FFF7CAFF86424CD800221AE0F6
:103FC000A368D3F80414B85C5854D4F808C0DCF8DB
:103FD000043403F1010E2148AEFB0001C1EB0E03D6
:103FE00001EB53035B0AC3EB8323C3EB0E03CCF853
:103FF0000434013292B29642E2D8A368D3F8006446
:10400000012217492068FEF719FF09E0A068FFF7B1
:10401000B3FF38B1134B1B6813F4803F00D0013D50
:10402000002DF3D100220E492068FEF707FFA36898
:10403000D3F800349B1B03F2FF330848A3FB0001B5
:104040005A1A01EB5202520AC2EB8222981AF8BDA8
:104050004FF0FF3070474FF0FF30F8BD05104000C3
:104060000701070010E000E02DE9F04182B017469B
:104070001E4600230193013A40F2FE339A423CD897
:1040800004460D46D0F804804046FFF775FF0190C6
:104090000CE04046FFF770FF0190019B9F4207D95B
:1040A000184B1B6813F4803F00D0013E002EF0D166
:1040B000019B03B3019B9F4200D9019F01970022FE
:1040C00016E06368D3F800145B5CAB546068D0F80A
:1040D000001401310C4EA1FB0667CB1B07EB530309
:1040E0005B0AC3EB8323CB1AC0F80034013292B2CF
:1040F000019B9A42E5D3019800E0002002B0BDE8A0
:10410000F08100BF10E000E005104000F0B583B082
:1041100000230193541E4FF6FE739C422DD8144683
:104120000E4605464068FFF727FF0190019B13B339
:10413000019B9C4201D9019A00E022460192002293
:1041400016E06B68D3F800145B5CB3546F68D7F863
:10415000004401340A48A4FB0001631A01EB530335
:104160005B0AC3EB8323E31AC7F80034013292B22F
:10417000019B9A42E5D3019800E0002003B0F0BD16
:1041800005104000002103E00B4B5B584350043105
:104190000A480B4B42189A42F6D30A4A02E000231F
:1041A00042F8043B084B9A42F9D3FCF787FF00F032
:1041B000AFF8FFF777F8FEE7549100080000002001
:1041C0008C0200208C0200207C290020FEE70021C8
:1041D00001F0FEB90A22002101F006BB00F0F2B99D
:1041E0000268474BF0B592FBF3F403FB1422002A5C
:1041F000BCBF02F5A83202F5C0724FF4616004F54D
:104200002F2492FBF0F300FB13224FF03C00ACBFD5
:1042100004F66C2404F66B248B6092FBF0F300FB35
:1042200013224B600A600723E21C92FBF3F3C3EBFB
:10423000C303D31A8B61334B334D94FBF5F503FB6A
:10424000054448F6AC62B4FBF2F2224440F2B457A3
:10425000B4FBF7F3D21A2D48B4FBF0F048F694669D
:10426000131AB3FBF6F6344440F26D12B3FBF2F0CE
:10427000B3FBF7F3E31A02FB1033992403EB830239
:104280000232B2FBF4F20A2A04FB02F404F1020641
:104290004FF00504B6FBF4F434BF02266FF00906B4
:1042A00016444FF4C87202FB05055F1C012E98BF2F
:1042B0000135B3F5997FA7EB040702D3A3F59972F3
:1042C00014E0820705D16424B0FBF4F204FB12026F
:1042D0004AB94FF4C872B0FBF2F402FB1400B0FA12
:1042E00080F2520900E001223B331A44A5F26C75BA
:1042F0000023CA614D610E61CF600B620846F0BDBC
:10430000805101004FC5FDFFB13A0200B03A0200F2
:1043100070B50E4B0E4CE41AA41000251E46A542A3
:1043200004D056F8253098470135F8E704F086F8B0
:10433000084C094BE41AA41000251E46A54204D0DF
:1043400056F8253098470135F8E770BD4C910008C4
:104350004C910008509100084C91000838B5074B6B
:104360001C68E36B05461BB9242000F009F9E063E3
:10437000E16B2846BDE8384000F002B8D0000020CC
:104380002DE9F0410C46804602F0CCFA2146074662
:104390004046FFF725FF466906F26C76B3070446F0
:1043A00005D1642296FBF2F302FB13634BB94FF481
:1043B000C87596FBF5F305FB1365B5FA85F35B0944
:1043C00000E001235F4A302505FB032501F074FB63
:1043D00001F074FB5C4B1B68F3B17B689E4205D116
:1043E0003968D8F80030FA6941B90AE0304601F07E
:1043F000BBFA0028F4D14FF0FF330DE0934208DB05
:1044000001E0934207DABA6B9342ACBF0023012369
:1044100002E0002300E001232362236A012B0CBF8A
:10442000F96B396A4FF461633C2091FBF3F603FBAF
:104430001613616893FBF0F200FB12302368891AAF
:10444000A26861601B1A921B3B2B2360A26003DDF4
:10445000013161603C3B04E0002B03DA013961600B
:104460003C33236063683B2B03DD0132A2603C3B9D
:1044700004E0002B03DA013AA2603C336360A368D6
:10448000172B22DDE2690132E261A2690132062ABC
:10449000C8BF0022A261E268183B0132A360236911
:1044A000E26055F823108A4246DD01330C2B0CBF25
:1044B00063692361A2EB0102E26001BF01330022C4
:1044C0002261636108BFE26136E0002B34DAE26901
:1044D000013AE261A269013A48BF0622A261E2689C
:1044E0001833013AE260A36032BB2369013B01D477
:1044F00023611DE00B23236163695A1E12F0030F31
:10450000626103F26B7305D1642193FBF1F201FB4D
:1045100012324AB94FF4C87193FBF1F201FB123326
:10452000B3FA83F35B0900E0012303F5B673E3619B
:10453000236955F82330E36001F0BFFA2046BDE857
:10454000F08100BF988D000804290020034B1B68F0
:10455000186A034B002808BF18467047D000002097
:10456000D4000020D0F8EC007047000008B5034BE1
:104570001868FFF7EBFFD0F8EC0008BDD000002072
:10458000024B0146186800F0A9B800BFD000002017
:10459000024B0146186800F053B800BFD00000205D
:1045A00082B001B901A93AB143B113780B60127816
:1045B000101C18BF012003E0104601E06FF001005D
:1045C00002B0704710B501390244904207D010F88C
:1045D000013B11F8014FA342F7D0181B10BD00207A
:1045E00010BD10B5431E0A44914204D011F8014B8E
:1045F00003F8014FF8E710BD884210B501EB020344
:1046000001D8421E0BE09842FBD28118D21AD34245
:1046100004D013F8014D01F8014DF8E710BD99429F
:1046200004D011F8014B02F8014FF8E710BD024425
:104630000346934202D003F8011BFAE770470000DB
:1046400038B50546002946D051F8043C0C1F002B14
:10465000B8BFE41802F0CCF91F4A1368114613B929
:104660006360146032E0A3420ED92268A01883422E
:1046700004BF18685B68636004BF121822600C6096
:1046800024E0A24203D813465A68002AF9D11868D8
:104690001918A1420BD121680144581882421960AF
:1046A00014D1106852685A60014419600EE002D9B2
:1046B0000C232B600AE021686018824204BF106856
:1046C0005268626004BF091821605C602846BDE83A
:1046D000384002F08EB938BDE428002070B5CD1CFA
:1046E00025F0030508350C2D38BF0C25002D064696
:1046F00001DBA94202D90C23336046E002F078F9CD
:10470000234B1C681A462146A1B10B685B1B0ED4D3
:104710000B2B03D90B60CC18CD501EE08C420DBF83
:1047200063684B686360136018BF0C4615E00C4665
:104730004968E9E7174C23681BB9304600F0BAF81E
:1047400020602946304600F0B5F8431C18D0C41C40
:1047500024F00304A0420DD12560304602F049F94F
:1047600004F10B00231D20F00700C31A0ED05A429B
:10477000E25070BD211A304600F09CF80130EBD1B8
:104780000C233360304602F034F9002070BD00BFC6
:10479000E4280020E02800200FB40A4B13B51C6861
:1047A00024B1A36913B9204601F0D0FC05AB049AEB
:1047B000A1680193204602F091FE02B0BDE81040CE
:1047C00004B07047D000002038B5084B1C6805467F
:1047D00024B1A36913B9204601F0B8FCA2682946A8
:1047E0002046BDE8384003F031B900BFD0000020BA
:1047F00070B50E46054618B183690BB901F0A6FCE9
:10480000AB69AC6813B9284601F0A0FC224B9C426E
:1048100001D16C6808E0214B9C4201D1AC6803E0F7
:104820001F4B9C4208BFEC68A3891B0701D5236975
:104830003BB92146284601F029FB10B14FF0FF306B
:1048400070BD013EA36816F8011F013BA36091B142
:10485000002B04DAA269934206DB0A2904D02368FC
:104860005A1C22601970EDE72246284601F0ACFA86
:104870000130E7D1E2E7002B08DA22460A21284678
:1048800001F0A2FA0130D9D00A2070BD23680A20B5
:104890005A1C2260187070BD948F0008B48F0008F5
:1048A000D48F0008024B01461868FFF7A1BF00BF74
:1048B000D000002038B5064C00230546084623608A
:1048C00003F0A6FD431C02D1236803B12B6038BD61
:1048D000782900200EB400B59CB04FF402711DABD6
:1048E000ADF81410029006906FF000410A48049150
:1048F00007914FF6FF7153F8042BADF816100068BE
:10490000019302A902F0CCFC029B00221A701CB099
:104910005DF804EB03B07047D0000020C9B2034635
:1049200010F8012B1AB19142F9D1184670470029AD
:104930000CBF184600207047034611F8012B03F8FE
:10494000012B002AF9D1704730B582B1451E0139DB
:1049500015F8013F11F8014FA34206D1EC4314446E
:10496000E04201D0002BF3D11C46181B30BD10468D
:1049700030BDF0B5037863B90B78002B18BF002069
:10498000F0BD15F8012F62B114F8017F974230464F
:10499000F7D00346461C007810B14D1E5C1EF0E7B0
:1049A000F0BD1846F0BD70B504460D4645EC104B01
:1049B000164602F0E5FA51EC100B7EB1C5F30A532E
:1049C000C3F16B03002B09DD1B0503F17F550024A8
:1049D00005F5401522462B46FBF722FE70BD000070
:1049E0002DE9F04F9FB01F460490002338461A93DC
:1049F0000591159201F09AFF06460068FBF700FC4E
:104A0000059B04464FF0000A4FF0000B1993199BC9
:104A10001A780D2A05D8092A13D2002A00F09D81A0
:104A200011E02B2A04D02D2A04D0202A0BD108E033
:104A3000002200E001220E925A1C19925B7823B9E1
:104A40008BE10133E2E700230E93199D2B78302B85
:104A50005DD16B78582B01D0782B4DD10E9B0193F3
:104A60001AAB009302971BABA84A049819A901F04E
:104A700042FC10F00706044600F07385062E05D1AF
:104A80000135002319950E9300F06BBD1A9A3AB1C7
:104A900035211CA802F061FB1A99049801F0DFFF90
:104AA000062E22D8DFE806F0040D08181D0D0400BC
:104AB0004FF0000BDA4618E0DDF870A0DDF874B0B6
:104AC00013E01D9B1B9ADDF870A023F4801302F203
:104AD000334243EA025B08E0DFF83CB24FF0000AE1
:104AE00003E06FF0004B4FF0FF3A210740F13985AA
:104AF0004BF0004B00F035BD199B5A1C19925B78A6
:104B0000302BF9D0002B00F02C85012300E000238E
:104B10004FF000080893199B0993CDF81C80CDF83D
:104B200018800A2219980578A5F13003D9B209290D
:104B30000ED806990829DDBF079902FB01330793B8
:104B400002FB0838069B0130013306931990E9E710
:104B500022463168FFF7F8FE28B100202B460246B6
:104B6000069D01464DE0199B1A191992069A1B5D84
:104B7000002A3FD11046302B05D1199B5A1C19929F
:104B800001305B78F7E7A3F13102082A3FD8199A80
:104B90000992024600200546303B00F1010123D076
:104BA0000A442E1829460A24B1420CD001314F1E66
:104BB000082F03DC079F67430797F5E71029D8BF45
:104BC00004FB08F8F0E72844082800F1010505DC9B
:104BD00007980A2101FB0033079304E0102DDCBF86
:104BE0000A2101FB08380021199B581C19905B7899
:104BF000084601E0069D0246A3F130010929CBD900
:104C00000121652B01D0452B53D16DB904E0652BF3
:104C100040F0B5840022012128B9089B002B00F048
:104C20009C80054600E00025199B059301331993EC
:104C3000059B5B782B2B05D02D2B01D0002607E0A0
:104C4000012600E00026059B02331993059B9B7803
:104C5000A3F13004092C2AD8302B04D1199B5C1CF9
:104C600019945B78F8E7A3F13104082C21D8DDF81A
:104C700064E0A3F130074FF00A09199B5C1C1994FA
:104C80005B78A3F1300CBCF1090F03D809FB07379F
:104C9000303FF2E7CEEB0404082C44F61F6902DC37
:104CA000B945A8BFB94636B1C9F1000903E0059C72
:104CB00019944FF00009002D58D1002840F051847C
:104CC000089A002A40F04D84002946D14E2B25D069
:104CD00002DC492B05D040E0692B02D06E2B1DD0A1
:104CE0003BE00B4919A801F038FD002835D0199B8D
:104CF0000849013B19A8199301F02FFD10B9199B20
:104D000001331993DFF810B023E000BFF88D0008DD
:104D10000C8E00080F8E00080000F07F9E4919A835
:104D200001F01BFDC8B1199B1B78282B0FD11CAAC1
:104D30009A4919A801F024FD052808D11D9BDDF82A
:104D400070A043F0FF4B4BF4E00B00F00ABCDFF81F
:104D500060B24FF0000A00F004BC059B1993159B4C
:104D6000002B00F0098400230E93FCE3069B0798B8
:104D7000002B08BF2B46102D2C46C2EB0909A8BFFB
:104D800010240693FBF7D6FB092C82468B4613DDD5
:104D9000834B03EBC40353E91223FBF741FC0646A4
:104DA00040460F46FBF7C6FB02460B4630463946E7
:104DB000FBF784FA82468B460F2D36DCB9F1000FE3
:104DC00000F0CF8324DDB9F1160F07DC744D05EB3D
:104DD000C90952465B46D9E9000114E0C5F1250333
:104DE000994522DC6E4CC5F10F0504EBC501C5EBFE
:104DF000090552465B46D1E9000104EBC504FBF707
:104E00000FFCD4E90023FBF70BFC82468B46A8E39A
:104E100019F1160F09DB624DA5EBC909D9E9002389
:104E200050465946FBF726FDEFE72C1B4C44002C5F
:104E300057DD14F00F010AD0594B03EBC101524664
:104E40005B46D1E90001FBF7EBFB82468B4634F071
:104E50000F0400F0B380B4F59A7F0BDD00242546E3
:104E600007940694049ADFF84CB1222313604FF0A4
:104E7000000A82E14B4E00232411504659469846C1
:104E80003746012C0BDDE20704D5D6E90023FBF7FA
:104E9000C7FB012308F1010864100836F1E70BB1E4
:104EA00082468B46ABF1547B07EBC80752465B4604
:104EB000D7E90001FBF7B4FB21F000438B460A461B
:104EC0001B0D39491B058B428246C7D8A1F58011BD
:104ED0008B4286BFDFF8E0B04FF0FF3A02F1547B1F
:104EE0006CE06BD0644214F00F020AD02C4B03EB41
:104EF000C20350465946D3E90023FBF7BBFC824668
:104F00008B4624115AD01F2C04DD0024254607941B
:104F100006942BE114F0100F0CBF00236A23234EDC
:104F20000593504659460023002C09DDE20704D5BD
:104F3000D6E90023FBF774FB012364100836F3E77E
:104F40000BB182468B46059BEBB1CBF30A53C3F101
:104F50006B03002B594616DD1F2B0EDD342BDEBFF5
:104F6000203B4FF0FF3202FA03F34FF0000ACCBFB0
:104F70004FF05C7B03EA010B05E04FF0FF3202FAD1
:104F800003F303EA0A0A0022002350465946FBF7BE
:104F9000AFFD0028B9D113E0158E0008408E00083F
:104FA000F88F0008C09000080000A07C188E000850
:104FB0000000F8FF0000F07FFFFFEF7F0023059364
:104FC000079B0093069A099904982B4601F099FDD6
:104FD000079000283FF442AFB9F1000FC9F1000378
:104FE000A8BF00230F93002429EAE97314932546F0
:104FF000079B0498596801F0FDFC069000283FF4D7
:1050000031AF079B1A69023203F10C0192000C3098
:10501000FFF7E7FA1CAA1BA94BEC10AB0498CDE9EB
:105020000AAB02F022F81A9000283FF41BAF0121CE
:10503000049801F0F1FD054600283FF413AF1B9BD7
:1050400005991C9E002BADBF0F9A149ADDF83C8089
:1050500002EB0308B8BFD21AA3EB01033344B549EE
:10506000A8BF149A013B8B42C6F1360680F28A80B3
:10507000C91A1F29C8BFB04F4FF00109D4BF09FAA0
:1050800001F3FF1AA6EB0106D9BF0893002709FA1E
:1050900007F7CDF8209008EB0609059BC845164494
:1050A0001E444346A8BF4B46B342A8BF3346002B1D
:1050B000C2BFC3EB0909F61AC3EB08080F9B002B0C
:1050C00064D1B9F1000F7ADC149B002B40F0818091
:1050D000002E00F38880B8F1000F00F38E80069A4E
:1050E0001A99049801F0EDFE044600283FF4BAAE88
:1050F000C36809930023C360294601F0C6FE002857
:1051000080F28980099B002B40F00482BAF1000FE5
:1051100040F00082CBF31303002B40F0FB812BF017
:1051200000431B0D1B05B3F1D66F40F2F381636999
:10513000002B6CD021460122049801F055FE29462F
:10514000044601F0A2FE002840F3E4812BF0004366
:10515000059A1B0D1B05002A00F08C80B3F1D66F59
:1051600000F38880B3F15C7F00F3D681049A222398
:105170004FF0000A4FF0000B1360079B002B40F02C
:10518000DC81EEE101230027089384E729461A46D3
:10519000049801F0DBFD054600283FF463AE0146AC
:1051A0001A9A049801F041FD099000283FF45AAE84
:1051B0001A99049801F053FC099B1A9381E74A4617
:1051C0001A99049801F010FE1A9000287FF47CAF21
:1051D00048E6149A0699049801F0B8FD0690002854
:1051E0007FF476AF3EE632460699049801F0FCFD66
:1051F000069000287FF46FAF34E6294642460498B3
:1052000001F0F2FD054600287FF469AF2AE6236924
:10521000012B8FDC7EE161D1099ACBF3130322B31A
:1052200046498B425A462ED1059B514663B1444BA9
:105230001340B3F1D46F07D81B0DC3F16B034FF0CC
:10524000FF3000FA03F301E04FF0FF338B421AD135
:105250003C498A4202D101333FF404AE384B13403B
:1052600003F5801B4FF0000A54E163B9BAF1000F57
:1052700009D16BE7A3F580136FEA135B6FEA0B5B51
:105280004FF0FF3A46E117B117EA0B0F02E0089B17
:1052900013EA0A0F00F03E81099B059A50465946D1
:1052A00053B1FFF780FB02460B46DDE90A01FBF72D
:1052B00005F882468B462DE1FFF775FB02460B464B
:1052C000DDE90A01FAF7F8FF0022002382468B4647
:1052D000FBF70EFC00287FF449AF1BE1294620466E
:1052E00001F011FF57EC106B00224FF0804310EEDD
:1052F000100A3946FBF710FC002842D0099B23B165
:105300004FF00008DFF8409011E0BAF1000F03D130
:10531000CBF313033BB91BE0BAF1010F03D1BBF18F
:10532000000F3FF423AFDFF824904FF00008002671
:10533000054F39E002FCFFFFE2FBFFFFFFFF0F001C
:105340000000F07FFFFFEF7F0000F03F0000F0BFA4
:105350000022994B30463946FBF7D4FB40B9304622
:1053600039460022954BFBF75BF906460F4601E0F4
:10537000924F002607F1004316961793DDE9168930
:1053800012E08E4B304639460022FBF749F9099B63
:1053900006460F4623B901F100431090119301E036
:1053A000CDE91067DDE910892BF000431B0D1B05CB
:1053B0000893089A824B9A422BD1DDE90A23ABF17C
:1053C000547B4BEC10ABCDE90C2301F0D9FD4046EA
:1053D00053EC102B4946FBF723F952465B46FAF78C
:1053E0006DFF21F000431B0D764A1B059342824658
:1053F0000CD9754B0D9A9A4203D10C9B01333FF4A3
:1054000031ADDFF8C4B14FF0FF3A72E001F1547BE7
:1054100038E0059B33B3089BB3F1D46F22D85EA369
:10542000D3E9002330463946FBF776FBA8B139466D
:105430003046FBF7B7FB002808BF0120FBF77AF8DE
:10544000099B06460F4623B901F1004312901393BE
:1054500001E0CDE91267DDE91289089A09F1D66306
:10546000C2EB03099DED0A0B01F08AFD404653ECA7
:10547000102B4946FBF7D4F8DDE90A23FAF71EFFA3
:1054800082468B46059BA3BB2BF000431B0D089A5D
:105490001B059A42D8462CD139463046FBF75AFBB9
:1054A000FBF758F80B46024639463046FAF704FF38
:1054B000099B06460F462BB9BAF1000F02D1CBF378
:1054C000130383B136A3D3E9002330463946FBF7F3
:1054D00019FB002831D134A3D3E9002330463946E3
:1054E000FBF72EFB04E032A3D3E90023FBF70AFB12
:1054F00018BB1A99049801F0B2FA0699049801F0C1
:10550000AEFA2946049801F0AAFA2146049801F05F
:10551000A6FA6DE5059B83B12C4B0D9300230C93EC
:1055200050465946DDE90C23FBF77AF882468B4654
:1055300019B910B9049A222313601A99049801F03A
:105540008EFA0699049801F08AFA2946049801F027
:1055500086FA0799049801F082FA2146049801F02E
:105560007EFA159B13B1159A199B13600E9B1BB104
:1055700052460BF1004307E052465B4604E000252B
:105580002A460121FFF73FBB43EC102B1FB0BDE8BB
:10559000F08F00BFAFF300800000C0FFFFFFDF41CE
:1055A0009535A094FFFFDF3F35E5AF350000E03FC4
:1055B0009535A094FFFFCF3F0000F03F0000E03F93
:1055C0000000E07FFFFF9F7CFFFFEF7F000050396E
:1055D000074B084A10B41C68236A002B08BF134607
:1055E0000A46014620465DF8044BFFF7F9B900BFB3
:1055F000D0000020D4000020174B2DE9F0411D6899
:10560000AC6D06460F46FCB95020FEF7B9FFA86501
:105610008460AB6D046044601C61DC60AB6D9C61B8
:105620005C61AB6DDC629C62AB6D5C631C63AB6DFB
:10563000DC639C63AB6D5C641C64AB6DDC649C647C
:10564000AB6D1C77AB6D5C62AA6D394630460123A9
:10565000BDE8F04100F002B8D0000020F0B548B934
:10566000106838B9F0BD17F8016B5EB1B542FAD1D8
:105670002BB1204604460F4614F8015BF3E7146093
:105680000370F0BD4DB915602846F0BD17F8016BE9
:10569000B54207D0002EF9D11C4623460F4613F819
:1056A000015BF3E715B10021217000E02B46136088
:1056B000F0BD2DE9F0478046894692461E460F46CA
:1056C0003D46089815F8014BFEF74CFF2044427800
:1056D00002F0080202F0FF030AB12F46F0E72D2C7A
:1056E00003D1BD1C7C78012303E02B2C04BF7C7804
:1056F000BD1C16B1102E0AD15EE0302C5AD12A788A
:1057000002F0DF02582A50D16C7810260235002BA7
:1057100014BF4FF000426FF00042B2FBF6FE06FBF2
:105720001E2100221046A4F13007092F01D83C4663
:105730000AE0A4F14107192F01D8373C04E0A4F195
:105740006107192F13D8573CA64210DD571C0BD008
:10575000864507D301D1A14203DB00FB06400122AD
:1057600002E070464FF0FF3215F8014BDBE7511CA9
:105770000ED1002B4FF0220314BF4FF000406FF00A
:105780000040C8F80030BAF1000F07D1BDE8F0873B
:1057900003B14042BAF1000F11D00AB1013D00E05F
:1057A0004D46CAF80050BDE8F0873024002EAED137
:1057B0000826ACE70A26AAE7302CA0D0A7E7BDE868
:1057C000F087000037B5064C064D2468246A002C8B
:1057D00008BF2C460094FFF76CFF03B030BD00BF3C
:1057E000D0000020D4000020084B37B51C68084DBD
:1057F000236A002B08BF2B46009313460A46014636
:105800002046FFF756FF03B030BD00BFD000002098
:10581000D40000202DE9F0478046894692461E4676
:105820000F463D46089815F8014BFEF79BFE2044B5
:10583000437803F0080303F0FF020BB12F46F0E7B3
:105840002D2C03D1BD1C7C78012203E02B2C04BF3E
:105850007C78BD1C16B1102E0AD157E0302C53D1E4
:105860002B7803F0DF03582B49D16C7810260235D2
:105870004FF0FF310023B1FBF6F106FB01FE6FEAAA
:105880000E0E1846A4F13007092F01D83C460AE055
:10589000A4F14107192F01D8373C04E0A4F16107B6
:1058A000192F13D8573CA64210DD002B09DB81428B
:1058B00007D301D1A64503DB00FB0640012302E02C
:1058C00008464FF0FF3315F8014BDBE7002B09DAF0
:1058D0002223C8F800304FF0FF30BAF1000F07D193
:1058E000BDE8F08702B14042BAF1000F11D00BB110
:1058F000013D00E04D46CAF80050BDE8F087302475
:10590000002EB5D10826B3E70A26B1E7302CA7D080
:10591000AEE7BDE8F087000037B5064C064D2468B9
:10592000246A002C08BF2C460094FFF773FF03B0D5
:1059300030BD00BFD0000020D4000020084B37B598
:105940001C68084D236A002B08BF2B4600931346A2
:105950000A4601462046FFF75DFF03B030BD00BF99
:10596000D0000020D40000202DE9F74F044600F0BD
:10597000D9FF40F2B1739C4240F396806FF4F66316
:10598000E318A4F2B2729B1040F26D1505FB0235CC
:10599000A4F26D726FF0630392FBF3F36FF4C862CD
:1059A0002B44A5184FF4C87295FBF2F51D446423EF
:1059B00094FBF2F794FBF3F602FB174703FB164642
:1059C00000F13803B7FA87FE019304F00303446043
:1059D0004FEA5E1E014600934FF0070C0B7A4A2BEC
:1059E0000ED14B69009AEC1802B906B927B93B2BC6
:1059F000D4BF0023012300E000232344013B3FE008
:105A0000442B02D14B692B443AE0009B2BB9002E6A
:105A10000CBFF0464FF0010800E0F046244BCC6884
:105A2000302202FB0838A8F1040AA9460123A34248
:105A300004DA5AF804BF0133D944F8E709F1040342
:105A400093FBFCFBCBEBCB0A012CCAEB030A4B69A3
:105A5000B8BF012404F18044B3EB0A0A0B6904F1D6
:105A6000FF3403F1FF3348BF0AF1070AC3EBC30356
:105A700058F824405344A34201DB073BFBE74B4467
:105A80008C690C4A02FB03430C6A234441F81C3F17
:105A9000019B9942A2D1C369826B9342ACBF0023A0
:105AA00001230360012000E0002003B0BDE8F08F77
:105AB000988D00088051010070477047014B1868AD
:105AC00000F002B8D00000202DE9F04F8DB007465D
:105AD00000F028FFB049B14E0446384600F01AFFE6
